{
  "contractName": "AdAuction",
  "abi": [
    {
      "inputs": [],
      "name": "makeAd",
      "outputs": [],
      "stateMutability": "payable",
      "type": "function",
      "payable": true
    },
    {
      "inputs": [],
      "name": "getOwner",
      "outputs": [
        {
          "internalType": "address",
          "name": "",
          "type": "address"
        }
      ],
      "stateMutability": "view",
      "type": "function",
      "constant": true
    },
    {
      "inputs": [],
      "name": "getAmount",
      "outputs": [
        {
          "internalType": "uint256",
          "name": "",
          "type": "uint256"
        }
      ],
      "stateMutability": "view",
      "type": "function",
      "constant": true
    }
  ],
  "bytecode": "0x608060405234801561001057600080fd5b50610291806100206000396000f3fe6080604052600436106100345760003560e01c806334a1698d14610039578063893d20e814610043578063d321fe291461006e575b600080fd5b610041610099565b005b34801561004f57600080fd5b50610058610127565b60405161006591906101b8565b60405180910390f35b34801561007a57600080fd5b50610083610151565b60405161009091906101f3565b60405180910390f35b60005434116100dd576040517f08c379a00000000000000000000000000000000000000000000000000000000081526004016100d4906101d3565b60405180910390fd5b3460008190555033600160006101000a81548173ffffffffffffffffffffffffffffffffffffffff021916908373ffffffffffffffffffffffffffffffffffffffff160217905550565b6000600160009054906101000a900473ffffffffffffffffffffffffffffffffffffffff16905090565b60008054905090565b6101638161021f565b82525050565b600061017660188361020e565b91507f506179206d6f726520746f206d616b65206368616e67657300000000000000006000830152602082019050919050565b6101b281610251565b82525050565b60006020820190506101cd600083018461015a565b92915050565b600060208201905081810360008301526101ec81610169565b9050919050565b600060208201905061020860008301846101a9565b92915050565b600082825260208201905092915050565b600061022a82610231565b9050919050565b600073ffffffffffffffffffffffffffffffffffffffff82169050919050565b600081905091905056fea2646970667358221220aa0fe0e046cf50ff8cafba29d729735c0315b8a728923bf7d6af69186db06d0b64736f6c63430008000033",
  "immutableReferences": {},
  "source": "pragma solidity ^0.8.0;\r\n\r\ncontract AdAuction {\r\n    uint256 private amount;\r\n    address private owner;\r\n    \r\n    //Change Ownership and amount\r\n    function makeAd() external payable {\r\n        require(msg.value > amount, \"Pay more to make changes\");\r\n        amount = msg.value;\r\n        owner = msg.sender;\r\n    }\r\n    \r\n    //function to get owner\r\n    function getOwner() external view returns (address) {\r\n        return owner;\r\n    }\r\n    \r\n    //function to get Amount\r\n    function getAmount() external view returns (uint256) {\r\n        return amount;\r\n    }\r\n}\r\n",
  "sourcePath": "A:\\AnUrAG\\My projects\\Blockchain\\Advertisement Auction\\contracts\\AdAuction.sol",
  "compiler": {
    "name": "solc",
    "version": "0.8.0+commit.c7dfd78e.Emscripten.clang"
  },
  "schemaVersion": "3.4.3",
  "updatedAt": "2021-10-30T13:07:38.808Z",
  "networkType": "ethereum",
  "devdoc": {
    "kind": "dev",
    "methods": {},
    "version": 1
  },
  "userdoc": {
    "kind": "user",
    "methods": {},
    "version": 1
  }
}